:400000000008002011000000A1190000A119000008B502F079FC01F0C5FC000010B572B6224BEE2212021A60214B0024214A1C60DF231360204A18201360204B8E221A60AF
:400040001F4A204B1A60204B06221A601F4BC02252001A601E4B1C6002F006FC1D4BB02212011A601C4B1D4A1D491A60FE2212020A601C49012019601B490A601B4A1A6075
:400080001B4A14601B4A1A601B4B04221A601B4B43221A601A4B40221A601A4B41221A60194B42221A6001F0CBFC10BD000102400003024000000440180004400001044086
:4000C0003009C000080104400802044008030440300010400C0301400000014043FF00800003014040FF00800403014041FF00800803014042FF0080280003400C01014079
:4001000008010140040101400001014010B5064C2378002B07D1054B002B02D0044800E000BF0123237010BDC000002000000000942A000008B5084B002B03D00748084930
:4001400000E000BF07480368002B03D0064B002B00D0984708BDC04600000000942A0000C4000020700000200000000010B502F01DFA041C012001F0F1FE054B012200207E
:400180001A7001F0EBFE201C02F014FA10BDC0461401002008B502F009FA054B1A78002A03D01A78013AD2B21A7002F003FA08BD32020020F8B5244B9A79012A12D102F0F4
:4001C000F5F9041C01F0FEFC2023204D1840287003D0201C02F0EEF901E01D4B18702B78002BECD11B4F00233B70174B9E7E012E17D1194B1D78002D13D102F0A3F801F0CD
:400200007BFC301C02F04EF902F0E0FB281C02F049F9201C02F0CEF901F072FC02F0AAF805E0201C02F0C6F93B78002BFCD0084B1A78002AD9D01B78012B03D101F0C2FC1F
:400240008306FBD4F8BDC046220100209C0200201401002035020020DC000020074B0020191C0A1C8032934204D21A7801338018C0B2F6E7431E9841C0B27047003F000069
:40028000F7B5019002F092F9174D184E0023071C01982B70337001F099FF012401F0C6FE00281ED002F084FB381C02F083F92B78002B03D10D4A1378002BEFD00C4B2A33CF
:4002C0001B785BB2002B01DA0024E7E72B78002BFAD001F03BFE041EF6D1012001F02AFEDCE7002CCED0F7BD1401002034020020DE010020F0B5002485B000943E4D009EFB
:40030000A85D0A26321C42433C4DAB18598851539A885A80FFF7B4FF009A374C384FA15C4E434800C25BAB199A80755B5B889D4202D81E1C2B1C351C2E1C954200D9161C60
:40034000B2B2351C9A4200D21D1C2E4B8C009C46E358AAB23D5202942B4D9A4216D96E7FD41A0196B44205D9FF2E03D0029D6646AA512FE02D7F1E1CAE40F31A9A18214B61
:40038000EA408D004900EA507A5223E09A4217D2AC7F9E1A0194A64205D9FF2C03D002996346CA5016E02D7F1E1CAE40F31A9A18144BEA408D00EA50114B4900CA5209E052
:4003C000297F1D1C8D40EB1A9A18029CCA40654662513A520D4B009C1B5A3A5A0134D21A054E0B4BE4B21A52335D0094FF2B00D084E705B0F0BDC04615010020A201002053
:40040000F40000204402002022010020660200203602002038B5012817D10024184D285DFFF72EFF2A5D174B5100CB5A1649900043500A204243154901345352E4B28A18F0
:4004400053802B5DFF2BE9D118E0022814D100230B480C4AC15C01334C00A25A0A4C8D002A510A256943094CDBB20A5361184A80C25CFF2AECD101E0FFF73CFF38BDC04605
:4004800015010020F400002044020020A201002038B5051C01F0D8FD0024281C211C01F031FF281C211C01F03BFF281C01F08EFE01F0BCFD0028FBD1054B6A00D25A054BEE
:4004C0001B889A4202D301347F2CE6D138BDC046F40000201E010020F8B5A44C2378122B00D093E06378342B00D08FE0A378562B00D08BE0E378782B00D087E0627E237E05
:4005000012021A439A4B1A8001F0B6FE0120FFF7BFFF0020FFF7BCFF0220FFF7B9FF0320FFF7B6FF0420FFF7B3FF0520FFF7B0FF0120FFF76FFFFFF7DDFEFFF7DBFEFFF731
:40054000D9FE0023E25C8B4DEA540133802BF9D1002001F0CFFE2873002001F0DBFE6873012001F0C7FEA873012001F0D3FEE873022001F0BFFE2874022001F0CBFE6874F2
:40058000032001F0B7FEA874032001F0C3FEE874042001F0AFFE2875042001F0BBFE6875052001F0A7FEA875052001F0B3FE6A1CE875D27FE97F704B12020A431A80EA1C24
:4005C000D27FA91CC97F12020A435A806A1DD27F291DC97F12020A439A80EA1DD27FA91DC97F12020A43DA802A1C291C283212780831C97F12020A431A812A1C2A32127848
:400600002935297812020A435A81AEE0FFF726FE031E00D0A9E0627A934205D201229A4001331043DBB2F6E707040025534E391C705D01F003FDE17A705DC9B201F054FE1D
:40064000A17A705D0135C9B2EDB201F047FE735DFF2BEBD1627E237E12021A43444B1A8001F00AFE217B0020C9B201F04BFE617B0020C9B201F054FEA17B0120C9B201F06E
:4006800041FEE17B0120C9B201F04AFE217C0220C9B201F037FE617C0220C9B201F040FEA17C0320C9B201F02DFEE17C0320C9B201F036FE217D0420C9B201F023FE617D9D
:4006C0000420C9B201F02CFEA17D0520C9B201F019FEE17D0520C9B201F022FE631CDA7FE17F254B12020A431A80E21CD27FA11CC97F12020A435A80621DD27F211DC97FE3
:4007000012020A439A80E21DD27FA11DC97F12020A43DA80221C211C283212780831C97F12020A431A81221C2A32211C12782931097812020A4301205A81FFF76BFE012038
:40074000FFF768FE0120FFF765FE0120FFF762FEFFF7D0FDFFF7CEFDFFF7CCFD0023E15C044AD1540133802BF9D1F8BD003F00001E01002022010020660200201501002039
:4007800008B5034B5B78002B01D0FFF7B3FD08BDDC00002070B501F015FA20231840FAD1804B814A1B78DBB213705BB2002B02DA00F09CFA75E07D4B59787D4B022900D0E9
:4007C00073E0242219705A707A4A11880C0AC9B29C70D97051880C0AC9B21C71597111890C0AC9B29C71D97151890C0AC9B21C72597291880C0AC9B29C72D972D288110A4B
:40080000D2B219735A736C4A11880C0AC9B29C73D97351880C0AC9B21C74597411890C0AC9B29C74D97451890C0AC9B21C75597591880C0AC9B29C75D975D288110AD2B285
:4008400019765A765D4A11880C0AC9B29C76D97651880C0AC9B21C77597711890C0AC9B29C77D97751895C1C0D0AE577C9B29C1CE1779188DC1C0D0AE577C9B21C1DE177AC
:40088000D288591D140ACC77D2B2991DCA77DA1DD0771A1C0832D0771A1C2832293310701870474B01221A707BE0021C012900D070E0242219705A703E4A1488250AE4B21F
:4008C0009D70DC705488250AE4B21D715C711489250AE4B29D71DC715489250AE4B21D725C729488250AE4B29D72DC72D288140AD2B21C735A73304A1488250AE4B29D7366
:40090000DC735488250AE4B21D745C741489250AE4B29D74DC745489250AE4B21D755C759488250AE4B29D75DC75D288140AD2B21C765A76214A1488250AE4B29D76DC76CB
:400940005488250AE4B21D775C771489250AE4B29D77DC7754895D1C260AEE77E4B29D1CEC779488DD1C260AEE77E4B21D1DEC77D2885C1D150AE577D2B29C1DE277DA1D51
:40098000D0771A1C0832D0771A1C283229331070187004E00021995401322A2AFAD1084B197070BDDE01002020010020DC00002072020020F4000020360200206602002034
:4009C0002101002010B53C4B1B7A012B3FD13B4B1B78012B6CD13A4C231C2A331A7852B2002A22DA197880229143022903D01B789343012B17D1231C2A3319787F220A409E
:400A00001A7001F0DFF820231840FAD12D4B18702D49021C095C01302A32C9B2C0B2A1542928F5D938E000233DE001F0CBF820231840FAD1234B18702349021C095C0130EF
:400A40002A32C9B2C0B2A1542928F5D924E0022B2ED11A4B1B78012B2AD101F0B3F88306FBD4174C231C2A331B785BB2002BF4DB012001F05FFA01F0A5F820231840FAD1DE
:400A8000104B18701049021C095C01302A32C9B2C0B2A1542928F5D918702A3422788023134323700123094A1370094A137002E0064B00221A7010BD2201002021010020DC
:400AC000DE0100203302002072020020640200201C01002070B51E4D1E4E2B78012B2BD11D4B00221A701D4B1D4CDB792370FF2B04D001F0CFFC1B4801F0B8FC002001F0E5
:400B000019FA331C2A331B785BB2002B05DA2378002B02D02378FF2BF3D12278124B00241C70FF2A06D0012001F004FA01F070FC01F07CFC2C700AE02A3633785BB2002BE6
:400B400005DB012001F0F6F9034B01221A7070BD64020020DE0100201C010020220100203202002095010000DC0000200A4BAA211A1C2B32181C10B52A301170072202705F
:400B80001C1C59701A7001F01DF88306FBD4227880231343237010BDDE01002010B5294A294B1179022906D100221A7001225A70FF229A7013E0107901225A7002220021B0
:400BC0009A7003221970DA70042802D1FF221A7105E004221A7105225A71FF229A71012001F0A8F9002001F05DFC002001F0B6F9164800F05DFF62B6154C5420011C221CC5
:400C000000F0F2FF00F046FF0023E25C0133DBB2532BFAD90F4A1370FFF7A8FFFFF75CFC0D4B01221A700D4B00221A70FFF7B2FDFFF7C8FEFFF74EFFFFF7BCFAFFF7A0FD78
:400C4000F4E7C046003F0000150100206D010000DE010020330200201C0100203502002010B5214C2378122B0FD16278342A0CD1A278562A09D1E278782A06D100232370CC
:400C80006370A3700123E37013E0E2780132D2B2E270002A0DD1A2780132D2B2A270002A07D162780132D2B26270002A01D10133237000231A1CE15C0133521892B27F2B4C
:400CC000F9D1231C52427F33FC20211C1A7001F077FCC0B2002805D1211C4031FD2001F06FFCC0B210BDC04622010020F0B500238FB0CE49CE4AC85CD05401332A2BF8D16F
:400D000010787F23184006900138092800D944E301F07EFE0A000A005801890186019C01180343036E019C01C24B1A78013A012A02D8069C1C70BEE0069DBF4C1D70E17AFB
:400D4000002001F0D1FAE17A012001F0CDFAE17A022001F0C9FAE17A032001F0C5FAE17A042001F0C1FAE17A052001F0BDFAA17A002001F0B3FAA17A012001F0AFFAA17AE7
:400D8000022001F0ABFAA17A032001F0A7FAA17A042001F0A3FAA17A052001F09FFA0023627A1D1CD9B2914204D2012199400D430133F7E72D040020291C01F03FF901206B
:400DC000291C01F03BF90220291C01F037F90320291C01F033F90420291C01F02FF90520291C01F02BF9217B002001F08BFAA17B012001F087FA217C022001F083FAA17C50
:400E0000032001F07FFA217D042001F07BFAA17D052001F077FA617B002001F081FAE17B012001F07DFA617C022001F079FAE17C032001F075FA617D042001F071FAE17D0C
:400E4000052001F06DFA621CD27FE17F7B4B12020A431A80E21CD27FA11CC97F12020A435A80621DD27F211DC97F12020A439A80E21DD27FA11DC97F12020A43DA80221C56
:400E8000211C283212780831C97F12020A431A81221C2A3212782934217812020A4301205A81FFF7B7FA2024013C0020E4B2FFF7B1FA002CF8D1624C604A27881688BB1B2E
:400EC0009BB2039303985F4B02961880668851880491711A89B259800591A088079091880891411A89B299800991E088D1880A91411A89B2D9800B91258911890C91691A00
:400F000089B21981019164895289A11A0D928AB25A814D4B0699DF701970242159705E71390ADD71370A2E0A250A1D72079D9E715C72039E2C0A99709C720599DD72040AF3
:400F4000099D1C735873019C300ADE730B9E98735974080A5A75110A2A0A18749A75200A320A9874DC741975DD751A761F715E7602980499020A0C9C9A760D9D0A0A1A771D
:400F8000220A59779A77290A5A1C089ED1779A1CD577D876DA1C310A0A98D1771A1DD677010A5A1DD1779A1DD91DD0770022CA77191C0831CA77191CDC77283129330A7017
:400FC0001A70EFE11B4A1378002B02D103231370E8E10024147001F0B5F91B4A03231370231CD118002001334870292BF9D1D9E1FFF736FE144B09221A7007225A70002283
:40100000DA700D4A9870111C7F310978197111785971517899719178D971D2781A72C1E100F0DCF9BEE100F0ADFABBE1DE0100209D020020DD000020220100206602002011
:40104000F40000203602002072020020DB4C0020627E237E12021A43D94B1A80E17A01F043F9E17A012001F03FF9E17A022001F03BF9E17A032001F037F9E17A042001F09B
:4010800033F9E17A052001F02FF9A17A002001F025F9A17A012001F021F9A17A022001F01DF9A17A032001F019F9A17A042001F015F9A17A052001F011F90023627A1C1CA5
:4010C000D9B2914204D2012199400C430133F7E724040020211C00F0B1FF0120211C00F0ADFF0220211C00F0A9FF0320211C00F0A5FF0420211C00F0A1FF211C052000F013
:401100009DFF01F0B9F80020FFF7C2F90120FFF7BFF90220FFF7BCF90320FFF7B9F90420FFF7B6F90520FFF7B3F9A64AA64B1179022906D100221A7001225A70FF229A7078
:4011400013E0107901225A70022200219A7003221970DA70042802D1FF221A7105E004221A7105225A71FF229A71002501202024FFF750F92F1C02942E1C039504950595A1
:401180000020FFF747F9914C039823880499ED186388059AFF18A388F618E388C01803902389C91804916389D218029B0592013BDBB20293002BE3D14309E3804B09238154
:4011C0006D0953097F0976090220638125806780A680FFF71FF90298FFF71CF97C4D238802982B8063886B80A388AB80E388EB8023892B8163896B8101F07CF86F4C20730D
:40120000012001F077F8A073022001F073F82074032001F06FF8A074042001F06BF82075052001F067F8A075029801F073F86073012001F06FF8E073022001F06BF8607403
:40124000032001F067F8E074042001F063F86075052001F05FF82B88C0B21E0A621CDBB2D677E07503900496E37705936B88E21C180ADBB208930899A31CD977D077079013
:40128000AB881A0ADBB209920A93099E0A98621D231DD877D677EF88E31D390AD977FFB2A31DDF778C462989231C221C080A08332832C9B21070D9776B89251C1A0A2A35F2
:4012C0002A70251CDBB229352B70069E414D2E701B266E70029EAE70667EEE70267E2E71267B6E71A67BAE71267CEE71A67C2E72267D6E72A67DAE72667BEE72E67B2E73CF
:40130000667C6E73E67CAE73647D049EEC73039C6E742C74079E059CAC74EE74089C099E2C750A9C6E75AC75069C6646EE752F766876A976EA762B770A2C33D1FFF790FCF5
:40134000A8702FE05378AA2B02D001F025FB29E0204C1A4D072323700A23637000262B1C4E707D331B78301CA3702B1C7E331B78E37001F0D1FA2071FEF770FF2B1C6071B6
:40138000A6717F331B78E3712B7823726B786372AB78A372EB78E37204E00E4B069D00221D705A7000F00EFC8606FBD40A4B7F2219780A401A700FB0F0BDC04622010020DF
:4013C0001E010020003F000015010020F40000206602002072020020DE01002000B5664B05225978654B481E1A70904200D9B7E001F004FB031B3EB658A307225A700122B7
:401400009A700022DA705E4A5179197191795971D1799971117AD971927E1A7209220021995401322A2AFAD1A5E00A225A7002229A700022DA701A71514A111C7F3109787D
:401440005971111C7D3109789971111C7E310978D971117819725178597291789972D278DA720C220021995401322A2AFAD182E007225A7003229A700022DA70404A517E6C
:401480001971117E5971D17A9971917AD971517A197212795A720A220021995401322A2AFAD168E01A2159709A700022DA70344A117B101C1971917B28305971117C99711F
:4014C000917CD971117D1972917D5972517B9972D17BD972517C1973D17C5973517D9973D17DD973511CC97F1974D17F5974D11CC97F9974911CC97FD974511DC97F197528
:40150000111DC97F5975D11DC97F9975911DC97FD9750078111C18760831C97F5976111C2A310978293299761278DA761C220021995401322A2AFAD11DE05A7006229A7078
:401540000022DA700E4A117F1971517F5971927F9A7107220021995401322A2AFAD10AE002225A70FF229970DA7004220021995401322A2AFAD100BD9D020020720200206C
:4015800022010020F8B5DC4ADC4B5778781E062800D9F4E101F03CFA0700F3014500F3018700D20187000421501802380078585401312A29F8D10421197001200721597078
:4015C0009870947800218C4202D1FF211971011CD078022802D9FF21597101211079002802D1FF219971012150790138012802D9FF21D97101219279012A02D9FF221A72D5
:401600000121D970012900D1C6E11979BC4A5171597991719979D171D97911721B7A9376BAE10421501802380078585401312A29F8D104211970082159700321997010797E
:401640000021884202D1FF21997101215079002802D1FF21D9710121907906380A2802D9FF2119720121D279022A04D0042A02D0FF225A720121D970012900D18CE1197952
:401680009F4A51765979507EC9B20002117601439C4801809979D172D9799172197A51725B7A137178E10421501802380078585401312A29F8D1002504261A221E705A705F
:4016C0009F70DD708E4C1A798F4822735A79A2739A792274DA79A2741A7A22755A7AA2759A7A6273DA7AE2731A7B62745A7BE2749A7B6275DA7BE2751A7CC2775A7CE277E7
:401700009A7C82498248CA77DA7C8249C2771A7D8148CA775A7D8149C2779A7D8048CA77DA7D8049C2771A7E7F480A705A7E7F49C2779A7E281C0A70DB7E7D4A1370217BA8
:4017400000F0E0FDA17B012000F0DCFD217C022000F0D8FDA17C032000F0D4FD217D301C00F0D0FDA17D052000F0CCFD617B281C00F0D6FDE17B012000F0D2FD617C022050
:4017800000F0CEFDE17C032000F0CAFD617D301C00F0C6FDE17D052000F0C2FD5A48E17FC27F644B12020A4358491A805848CA7FC17F12020A4357495A805748CA7FC17F6E
:4017C00012020A4355499A805548CA7FC17F12020A435449DA8054480A78C17F12020A4352491A8152480A78017812020A435A81E17A281C00F078FDE17A012000F074FDAB
:40180000E17A022000F070FDE17A032000F06CFDE17A301C00F068FDE17A052000F064FDA17A281C00F05AFDA17A012000F056FDA17A022000F052FDA17A032000F04EFD10
:40184000A17A301C00F04AFDA17A052000F046FD627A2B1CE9B2914204D20121A9400B430135F7E71D040020291C00F0E7FB0120291C00F0E3FB0220291C00F0DFFB0320A3
:40188000291C00F0DBFB0420291C00F0D7FB0520291C00F0D3FB20790022274B022805D11A7001225A70FF229A7011E01A70022201219A7003225970DA70042802D1FF22D8
:4018C0001A7105E004221A7105225A71FF229A710120FEF79FFD0020FEF79CFD0020FEF799FD0020FEF796FD072F55D1FFF7B8F9024BD87050E0C0469D02002072020020D5
:40190000220100201E010020230100202501002024010020270100202601002029010020280100204A0100202A0100204C0100204B0100206602002015010020042150185A
:4019400002380078585401312A29F8D1042119700521597006219970917800220239032902D9FF221A710122DA70012A14D019790A4A1177597951779B7993770CE0042221
:401980001A7002225A70FF229F70DA7004220021995401322A2AFAD1F8BDC04622010020FEE7000070B51048104B0138421C15D01E685C689D680022A118AA4203D0B15886
:4019C000A1500432F8E7DA680D1C4C1B944202D0002410C1F9E710330138E7E701F022F8FFF7DCF8FEE7C04601000000182B00000E4A0121136810B58B431360141C0023F6
:401A00009A00032B02D80A49895800E009490A4801338150192BF3D1FEF700FB074B00221A60236801221343236010BD0000104000000000A119000000000020680000205B
:401A40000B4B1A68191C002803D080231B06134301E053005B08074A0B601368111C2022002801D0134300E093430B607047C046002002402800034008B5054B80221968DD
:401A800012060A431A60052000F072FF08BDC0460000064010B5054C2378002B03D100F033F801232370FFF7E7FF10BDE8000020014B58607047C046E80000200A4B8022BD
:401AC0001968520011420AD008490968480406D4186807490140196019680A431A60054B02221A607047C0460000064060000640FFFEFFFF6C00064008B500F08DF808BDF1
:401B000008B500F093F808BD1A4B8022520010B51A60194A194B00241A60194B194A1A4913601A4A05201460194A1160194A1360194B1C6000F026FF0520032100F0FEFE3D
:401B40001649052000F0F2FE154B52221C60154BFF321A60144B1C60144B1C60144B1C60144B1C70144B1C70144B1C80144B1C7010BDC04600000640000800406000064052
:401B800007010080000306406C00FE0004030640100306400002064004020640411C0000880E0640480F0640080F0640C80F0640880F0640D8020020CA020020CC020020AF
:401BC000D402002010B5052000F0DCFE054B1F211C781A78E4B28A4305201A7000F0C8FE201C10BDCA02002070B5061C0D1C141E0BD0052000F0C6FE044B05201C60044B33
:401C00001E80044B1D8000F0B3FE70BDD0020020D6020020C802002008B500F05DFC024B01221A6008BDC046880E064008B5034B00221A60FF2000F041FC08BD880E06404D
:401C40009D4BF7B51B68002B00D098479B499C4A0D689C4816680223FF33048801962B402DD0994A202013685B005B081360974B19788143197018781021084318709448F1
:401C800005680D4206D193490978A14206D01978082501E019780225294319708E4B8F491D68294019608E4900230B608D4903600B70116880231B060B431360F9E0019F87
:401CC000FF0601D5884A1360019E0A231E4200D182E0864B1B685F0746D5824A844B11781B68101C002910D0012939D1814A1088002833D0804FDBB239608049013809688A
:401D0000108009190B7001342AE07D4A1288934224D2794A012414607A4A1288934201D2D11A89B2734A1180072902D80122027010E0694A6A481468082905D1A0210902F2
:401D400021431160002204E08021890121431160082202605F4A1C1C137001E0FFF7AEFE694B04221A6037E05B4A1368990433D5019E0223334008D0644B18680F231168FC
:401D80001840564B0B40136007E05A490888083880B20880082801D908200123011C07197E1AB44600290AD0544F01393F68674400974F4F3E68009FF6B23E70EFE7002B30
:401DC00006D110688021090201431160444A13604D4B0C221A603C1C019F0222174248D0E90615D53E4900230B6039490B60394B19780A238C4200D1131C291C1940334B5E
:401E00001A780A4320218A431A70364B00221A706A062CD52D4B20211A780A431A702D4B10221C783A4B1B68134210D0344B1988304B091B1980374B802118684902014366
:401E400019601868344901401960214B01E0244B04221A60314A01231360184E304A10203260304A116801431160234A1360134F3D6013490B685A071BD5204B1D4A186829
:401E80001388111C284A002B07D005192D78013BEDB2156001349BB201E0FF251560234A15680F222A40082AECD10B80204B10221A60044E3480F7BDEC000020400F064066
:401EC000000E0640CC02002000000640CA020020880F0640D402002060000640FF5FFFFFC80F0640D8020020880E0640CC0F064040030640F00000206C000640D002002048
:401F0000D6020020C8020020C00F0640080306406400064004020640FFFFFEFF800E0640FF0F0000480F06404002064008020640800F0640044B0222196840009143C9B2B9
:401F400002400A431A60704700010440024B18688007C00F7047C04600010440044B0422196880009143C9B202400A431A6070470003044008B5134B134A19681170134995
:401F80000F2208780978104091430A1C02431A600F4A104B07201A600F4A104B1A60104B104A19680A40C021C9020A431A6000F0E9FC0D49072000F0B9FC0720032100F03E
:401FC000BDFC08BD00FF0840D902002062F1FF0F0002000108000840C008A0010400084000000240FFFFF0FF9523000008B500F08DFA00F0B5FA0020011C00F0BDFA0020FA
:40200000011C00F08FFAFF2000F09CFA402000F06FFA044B04491A6807200A431A6000F0A7FC08BD0400084000100880024B1878012318407047C046F2000020014B800070
:40204000C15070477400002070B50F4C265CA31DB6001D5CA41900F0A9FAE368AA001968D2B20F269640B14304269640314303267543E269EDB214680726AE40B443146089
:40208000196000F097FA70BD982A0000F8B5164B0F261D5C9A1DAD00145C5D19134AEB68125CA0001968C0B28640B14319600327531E67435A1E93415B4206261E4000F0A5
:4020C00075FAEB69FFB21A680721B9408A43BE4016431E6000F06EFAEB6A01211A68A1408A431A60F8BDC046982A0000DB02002010B50024201C0134FFF7C8FF062CF9D121
:4021000010BD0000F8B5294B294D3C331B5C041C9B005F5900F0FAF900F022FA2B19187E0021013880B200F027FA2B1C1E33185D0021013880B200F0F5F9FF2000F002FAFA
:402140001C4E402000F0D4F9072000F01BFC3368402213433360072000F00AFC072000F011FC154B6A1D12191868D17F134A2A3502400A43295D072009040A431A60356838
:402180000F4B1D400F4B1D4300F0F2FB201CFFF75BFF00F00BFA3560041C002000F0FCF9094B201C1F6000F005FAF8BD982A000074000020040008400800084000FF80FF73
:4021C000FF1FDFFF200020000C00084008B5054B00221A70C2B29A7381221A70FFF792FF08BDC046F200002008B50E4B420019680D4B0233D152FFF749FF072000F0C2FBE9
:402200000A4B0B4A196807200A40A02109020A431A60084B084A19680A401A6000F0A8FB08BDC0460C000840F200002004000840FF1FDFFF0800084000FF80FF034B032139
:402240001A68084040021043186070470400084010B5084B00241C705C709C70DC701C715C71FFF787FE201CFFF7E8FFFFF740FF10BDC046DB02002010B5084CE37B002B03
:4022800003D1FFF7E5FF0123E373FFF7AFFE044B80221968D2030A431A6010BDF20000200400084007230B40C908405C01229A401040431E9841704710B5041C0134E4B24A
:4022C000062C06D00448211C3030FFF7EBFF0028F4D0201C10BDC04674000020014B1E331954704774000020014B18180176704774000020024B05331818C07F7047C0463A
:4023000074000020024B05331818C1777047C04674000020014B2A33185C704774000020014B2A331954704774000020034B1B68002B02DA024B01221A707047040008402D
:402340000401002008B5FFF7F1FF072000F01AFB064B074A19680A401A601A68520052081A6000F0D3F800F0FBF808BD04000840FFEFF7FF08B5FF2000F0BAF8FF2000F0BA
:40238000E1F8034B1B78002B01D0FFF72FFE08BD0401002070B5072000F0F4FA164B174D01261E602878C0B2FFF71EFF144C23785BB2002B03DA2378B343237018E02878D5
:4023C000C0B2FFF779FF28702B78052B04D82878C0B2FFF797FE0BE02378B343237023785A0605D5074B1A78074B1A70074B1E70072000F0BDFA70BD14000840000100201D
:40240000F2000020DA020020A40000200501002008B500F0CBF8044B01211A688A431A6000F0C8F808BDC04600000540034B802252001A60024A034B1A66704780E100E06C
:40244000A11900000000002010B5041C00F0AEF8054BA2011968C024A1430C1C14431C6000F0A8F810BDC04608E400E010B5064B802464001C60054B18660320FFF7E4FF3D
:40248000034B1C6010BDC04680E100E00000002000E100E0024B802252001A607047C04680E200E0044B012219689143C9B202400A431A607047C04600020440044B1A6884
:4024C000002AFBDB034A0002104318607047C0460000014042000080034B1A68002AFBDB024A1A607047C0460000014042000040044B1A68002AFBDB034A00021043186001
:402500007047C0460000014041000080034B1A68002AFBDB024A1A607047C0460000014041000040064B30B50202FF25C8001C6828401043072222401043186030BDC04619
:4025400004030140044B1A68002AFBDB034A0002104318607047C0460000014040000080034B1A68002AFBDB024A1A607047C0460000014040000040064B30B50202FF25F8
:40258000C8001C6828401043072222401043186030BDC046000301400230800804D0C0460138FDD1C046C046C0467047EFF3108072B6704780F310887047C046C046C046FE
:4025C000F0B50024ABB0069404900794FF2800D9EFE0A14200D1ECE008AF4022381C00F047FA231C211C221C029498003858002802D01218014302930133102BF5D1002A2D
:4026000005D1002900D0D9E00091039102E00020009003906D4D3F23391C40221AA818956B4C199300F024FA6A4A6B4B18AE266013602168090F0A2903D022680F23134036
:4026400000E00023069306990191002900D0B2E0FFF7ACFF614D624E2B68624A336012680590D20FD20772605F4A019812680790920007991832B26000291ED1302A06D16C
:402680000322134203D11B091A40012A13D0022000F0D6F8B368302B02D0302000F0E4F800F0ACF8002000F0BBF82B6830229343102213432B6000230693069B002B14D16A
:4026C0004A4A04981892189A01040A43189218AA22604049464A0A602268120F0A2A03D03B4B1A680F2313400693069A0192002A3BD1009B002B38D0111C381C402200F0A9
:40270000C0F902980399314A8300F95018923F2318AE1AA8391C4022736000F0A9F92E4B2C482660036023681B0F0A2B04D0284B1F680F231F4000E0019F0697069B002BAB
:4027400013D12C4A04981892189A01040A4318922049294A26600A602268120F0A2A03D01B4B1A680F2313400693079B002B1CD11B4CA068302808D1226803231A4206D14A
:4027800012091340012B02D10DE000F06DF822680320104000F044F823682B606368002B01D100F035F8002307930598FFF702FF01E00423069306982BB0F0BD0298830011
:4027C000F958FA5001220391009223E7B6D70000080010400400104004000080280003400801002030000340080F0340B6D8000005000080B6D9000006000080034B8022B5
:40280000196812060A431A607047C04630000340024B1A68520052081A6070473000034010B5041CFFF7C2FE044B03221968144091430C431C60FFF7BDFE10BD280003407D
:4028400010B5041CFFF7B2FE064B032219681440A2000C24A1430C1C14431C60FFF7AAFE10BDC04628000340F8B5041E182C03D010239843202839D1FFF798FE1C4D07268D
:402880002B68071CB3432B601A481B4B21181A68FF20097882430A431A60184B18491A68B2431A60174B6218186811787F2290431140021C0A431A603220FFF76DFE182CF7
:4028C00011D9221C2B681C3A92083240B34313432B603220FFF760FE183C2B68A4083440B3431C432C60381CFFF764FEF8BDC046080F0340CDF1FF0F0C0F0340100F034009
:40290000B4F1FF0F180F0340014A024B1A6070476588EDAC38000340034A1923011C1068194018401160704754000340024A83009B181868196070474000002038B5041C83
:402940000D1CFFF733FEA308084A9B009B1803221440944019680634A2409143A5400C1C2C431C60FFF726FE38BDC04600E400E01F23184001238340181C014B18607047FD
:4029800000E100E01F23184001238340181C014B1860704780E100E0034B04491A6892B20A431A607047C0460CED00E00400FA0508B5FFF7FBFD044B04211A688A431A603C
:4029C00030BFFFF7F7FD08BD10ED00E008B5FFF7EDFD074B04211A88064B92B21A60064B1A680A431A6030BFFFF7E4FD08BDC04652F1FF0F0400034010ED00E002B471468A
:402A000049084900095C49008E4402BC7047C04603B47146490840004900095A49008E4403BC704770B50E4B0E4D0024ED1AAD101E1CAC4204D0A300F35898470134F8E727
:402A400000F058F8084B094D0024ED1AAD101E1CAC4204D0A300F35898470134F8E770BD002B0000002B0000002B0000082B000010B50023934203D0CC5CC4540133F9E7E3
:402A800010BD031C8218934202D019700133FAE77047000000000000000000000000020106070003000002400001024000020240000302400800044008010440080204408C
:402AC00008030440000004400001044000020440000304400001020304050000040000000200000040000000800000000100000008000000F8B5C046F8BC08BC9E467047CD
:402B000035010000F1190000F8B5C046F8BC08BC9E4670470D010000282B0000700000205000000028020000000000000000FFFF0000FFFF0000FFFF0000FFFF0000FFFF2E
:402B40000000FFFF0101010101010202020202021414141450501414141450503F00000008000440080004400800044008000440080004400800044000000000000000005E
:402B80000000000000000000000000000000000000000000000000000000000000000000000000000000000000000000000000000000000000000000000000000000000015
:402BC00000000000000000000000000000000000000000000000000000000000000000000000000000000000000000000000000000000000000000000000000000000000D5
:402C00000000000000000000000000000000000000000000000000000000000000000000000000000000000000000000000000000000000000000000000000000000000094
:402C40000000000000000000000000000000000000000000000000000000000000000000000000000000000000000000000000000000000000000000000000000000000054
:403F000012345678066401FF020F0201000000000000000000000000991901070364641E4B1E4B1E4B1E4B1E4B1E4B000000000000000000000000000000000000000000F4
:403F40000000000000000000000000000000000000000000000000000000000000000000000000000000000000000000000000000000000000000000000000000013055BCE
:403F80000000000000000000000000000000000000000000000000000000000000000000000000000000000000000000000000000000000000000000000000000000000001
:403FC00000000000000000000000000000000000000000000000000000000000000000000000000000000000000000000000000000000000000000000000000000000000C1
:0200000490303A
:0200000011628B
:0200000490402A
:20000000FFFFFFFFFFFFFFFFFFFFFFFFFFFFFFFFFFFFFFFFFFFFFFFFFFFFFFFFFFFFFF0FF0
:0200000490501A
:0C00000000020A48119A00000A5722FC76
:0200000490600A
:0100000001FE
:00000001FF